:100000000EC028C051C326C025C024C023C022C0B2
:1000100021C020C0A2C31EC0F1C31CC01BC011243C
:100020001FBECFE5D2E0DEBFCDBF10E0A0E6B0E05E
:10003000E2E3FFE002C005900D92AE3DB107D9F7B3
:1000400021E0AEEDB0E001C01D92AF32B207E1F7A2
:100050001BD56DC7D5CFCF93DF93EC015FD3D09382
:10006000E100C093E000DF91CF9108955BD3089544
:10007000EF92FF920F931F93CF93DF9300D000D0A6
:10008000CDB7DEB7E82E8B0181E050D38FE493EC3F
:100090000197F1F700C00000EE20B9F1F12C1092A9
:1000A000DF001092DE008091E0009091E100A2D28A
:1000B00019821A821B821C8289819A81AB81BC8140
:1000C00084369105A105B105A0F489819A81AB819F
:1000D000BC810196A11DB11D89839A83AB83BC832A
:1000E00089819A81AB81BC8184369105A105B105D6
:1000F00060F3C6D26091DE007091DF0080E090E096
:10010000F8010995F394EF10CACF80E00FD30F9058
:100110000F900F900F90DF91CF911F910F91FF9053
:10012000EF9008958091DE009091DF00019690930A
:10013000DF008093DE000895833001F128F48130E0
:1001400079F08230A1F005C0853031F1F0F08630D1
:1001500051F181E0F5D280E0FFD280E0F7D208953E
:1001600080E0EED281E0F8D280E0F0D2089580E025
:10017000E7D280E0F1D281E0E9D2089581E0E0D2D7
:1001800080E0EAD281E0E2D2089581E0D9D281E034
:10019000E3D280E0DBD2089580E0D2D281E0DCD2ED
:1001A00081E0D4D2089581E0CBD281E0D5D281E044
:1001B000CDD208959091E2008093E300913009F44C
:1001C000BBDF0895CF93C82F813039F080E0B8D2DB
:1001D00080E0C2D280E0BAD203C08091E300ACDFFD
:1001E000C093E20080E0CF9108951092E300A4D282
:1001F00080E0E8DF80E008958091E600811104C08E
:1002000081E08093E600F0D208959093E50080931A
:10021000E40008958F929F92AF92BF92CF92DF92A7
:10022000EF92FF920F931F93CF93DF936B017C01AB
:100230006894AA24A1F80F2EF7E0BF2EF02D01E05C
:1002400016E06894882482F8D8E00F2EF9E09F2EFB
:10025000F02D82E0C816D104E104F10418F4C02F97
:10026000812F02C0CA2D8B2D94E0C916D104E10460
:10027000F10410F0C82D8D2F98E0C916D104E104C7
:10028000F10410F0CD2F892D6CEF70E096D285B778
:10029000877E85BF85B7806285BF789485B7806289
:1002A00085BF889585B78F7D85BFF89485B78F7D8D
:1002B00085BF80B5807F80BD78948091E6008823DB
:1002C00099F08C2F90E0A0E0B0E0C816D906EA06BD
:1002D000FB0628F0C81AD90AEA0AFB0A03C0C12C97
:1002E000D12C76011092E600C114D104E104F1048E
:1002F00009F0AFCFE091E400F091E500309709F00C
:100300000995DF91CF911F910F91FF90EF90DF90B2
:10031000CF90BF90AF909F908F900895CF93DF9331
:100320002091E7003091E8002115310509F473C0F0
:10033000CFB7F894E091EA00F091EB00908121E0D2
:1003400030E00090E90002C0220F331F0A94E2F768
:10035000209529232083E091E700F091E80034966E
:1003600020E031972FEFEF3FF207D9F748E050E058
:1003700091E0A1E0B0E0D0E0282F292381F0E091C6
:10038000EA00F091EB0060819D010090E90002C05D
:10039000220F331F0A94E2F7262B208311C0E0912D
:1003A000EA00F091EB003081BD010090E90002C04D
:1003B000660F771F0A94E2F7262F209523232083C8
:1003C000E091E700F091E8002D2F31972FEFEF3FFC
:1003D000F207D9F7990F4150510971F6E091EA00FF
:1003E000F091EB00208181E090E00090E90002C0F4
:1003F000880F991F0A94E2F7822B8083CFBF8091E8
:10040000E7009091E80020E001972FEF8F3F9207DF
:10041000D9F721E030E0C901DF91CF910895CF9362
:10042000DF93EC01892B41F08881882329F0219604
:1004300075DF89918111FCCFDF91CF910895EFDFB6
:100440008AE06CDF8DE06ADF08950F931F93CF93EE
:10045000DF93CDB7DEB764970FB6F894DEBF0FBE5B
:10046000CDBFDC01CB018E010F5F1F4F24E1F801EE
:1004700011922A95E9F74AE0B801EAD4C801CFDF22
:1004800064960FB6F894DEBF0FBECDBFDF91CF915B
:100490001F910F910895CF93DF9382E090E00BD5E9
:1004A000EC01909363008093620080E090E003D5BC
:1004B0009093610080936000219621F581E090E0A7
:1004C000909363008093620010926100109260002C
:1004D00061E070E082E090E0F3D4609160007091A0
:1004E000610080E090E0ECD482E090E0E4D490936E
:1004F00063008093620080E090E0DDD4909361001F
:1005000080936000DF91CF910895813031F0D0F079
:10051000823051F0833079F0089585B78E7F85BFA2
:1005200085B78D7F85BF089585B78E7F85BF85B7D9
:10053000826085BF089585B7816085BF85B7826079
:1005400085BF089585B7816085BF85B78D7F85BFDD
:10055000089582E1EEEEF0E0DF011D928A95E9F761
:100560001092ED001092EC0008950F931F93CF931B
:10057000DF93E091EF00F091F000EF2B91F0E0912C
:10058000F500F091F600EF2B49F0E091FB00F091BF
:10059000FC00EF2B39F5A2E0B0E005C0A1E0B0E02F
:1005A00002C0A0E0B0E08D01000F111FF801EA0FBA
:1005B000FB1FEE0FFF1FE251FF4FEB019881C1E0DF
:1005C000D0E0082E02C0CC0FDD1F0A94E2F7C095E0
:1005D0009C23EB01988380837283618343833583FB
:1005E000248302C0E0E0F0E0CF01DF91CF911F91C2
:1005F0000F910895CF93DF932091EC003091ED009F
:10060000232BC9F5EC01F8948AB78F7B8ABF8AB790
:100610008F7D8ABF8B81882319F0843020F511C02B
:1006200080E073DF25B381E090E0088002C0880F8E
:10063000991F0A94E2F7822B85BB8BB780628BBF30
:1006400012C063DF25B381E090E0088002C0880F0C
:10065000991F0A94E2F7822B85BB8BB780628BBF10
:100660008BB780648BBFD093ED00C093EC0078947F
:1006700080E090E002C08FEF9FEFDF91CF9108956F
:10068000F89415BA8BB78F7D8BBF8BB78F7B8BBFE1
:100690008091EC009091ED00892B21F01092ED00FB
:1006A0001092EC00789408951F920F920FB60F925B
:1006B00011242F933F934F935F936F937F938F9367
:1006C0009F93AF93BF93EF93FF93CF93DF931F92CB
:1006D000CDB7DEB71982E091EC00F091ED003097D4
:1006E00049F00480F581E02D998181E0911101C0EC
:1006F00080E009950F90DF91CF91FF91EF91BF912D
:10070000AF919F918F917F916F915F914F913F91A9
:100710002F910F900FBE0F901F901895BB9ABC9809
:10072000C49A0895BC9AC498C3980895882311F078
:10073000C39A0895C398089587B3836087BB0895CB
:10074000882311F0C19A0895C1980895882311F063
:10075000C09A0895C098089508951F920F920FB6F9
:100760000F9211242F933F934F935F936F937F9337
:100770008F939F93AF93BF93EF93FF93E09100010B
:10078000F0910101309709F00995E0910201F09193
:100790000301309709F00995FF91EF91BF91AF9157
:1007A0009F918F917F916F915F914F913F912F9189
:1007B0000F900FBE0F901F901895709305016093D6
:1007C0000401F89414BE94B7977F94BF91B59861D3
:1007D00091BDE82FF0E0E758FF4F808181BD81B5E2
:1007E000806481BD78940895F89484B7877F84BF2E
:1007F00081B5886181BD11BC789408951F920F92D4
:100800000FB60F9211242F933F934F935F936F93E3
:100810007F938F939F93AF93BF93EF93FF93E09159
:100820000401F0910501309709F00995FF91EF91CE
:10083000BF91AF919F918F917F916F915F914F91F8
:100840003F912F910F900FBE0F901F9018958F9290
:100850009F92AF92BF92CF92DF92EF92FF920F934F
:100860001F93E6E0F1E084809580A680B7808086C3
:100870009186A286B386008111812281338104830F
:1008800015832683378360837183828393836B010F
:100890007C01CC0CDD1CEE1CFF1CCC0CDD1CEE1C0A
:1008A000FF1C000F111F221F331F880C991CAA1C4C
:1008B000BB1C689413F8B694A794979487941694E5
:1008C000D1F7689413F836952795179507951694E0
:1008D000D1F7080D191D2A1D3B1DAB01BC017695F2
:1008E0006795579547957F70D901C801840F951F6B
:1008F000A61FB71F689413F8F694E794D794C7948B
:100900001694D1F7BC01CD016C0D7D1D8E1D9F1D70
:100910001F910F91FF90EF90DF90CF90BF90AF901D
:100920009F908F90089580911A01811103C081E0FA
:1009300080931A010895CF92DF92EF92FF926B019C
:100940007C0118BA87B3807E87BB80911401909197
:10095000150150DEC701B6015DDC92DEFF90EF901D
:10096000DF90CF9008958091160190911701A0918A
:100970001801B09119010196A11DB11D80931601B6
:1009800090931701A0931801B09319012FEF81EEF6
:1009900094E0215080409040E1F700C000000895AD
:1009A00009DC81E00FDC2FEF84E39CE021508040E4
:1009B0009040E1F700C0000080E004DC2FEF84E30A
:1009C0009CE0215080409040E1F700C00000089575
:1009D000F1DB81E0F7DB2FEF81EE94E021508040E6
:1009E0009040E1F700C0000080E0ECDB2FEF81EEEB
:1009F00094E0215080409040E1F700C0000008954D
:100A0000CF936E3997E079072CF010926400882319
:100A100001F12AC0643F91E0790724F091E09093BE
:100A200064002EC09B012A5531092A39314020F437
:100A300092E09093640024C06A35710524F493E039
:100A4000909364001DC081110BC0809164008111DE
:100A500019C080E0BDDF80E0BBDF80E0B9DF12C0FD
:100A600080916400811103C080E09ADF0BC0C0E078
:100A700082E096DFCF5F80916400C817C8F302C0A0
:100A80008111F5CFCF91089564DD05DD95D14DD16C
:100A900083E994E0BADB22E930E040E068E370E00B
:100AA00084E063DD909313018093120123EB34E023
:100AB00041E068E370E082E058DD90931501809397
:100AC0001401DEDD8091120190911301C4DA78D116
:100AD0006B017C01EB01CADA88DBB60181E090DFB3
:100AE00060E674E580E090E026DF0F2EF0E2CF2E86
:100AF000FCE1DF2EE12CF12CF02D6CE271E080E0C6
:100B000090E019DF72DB8091650090916600A09102
:100B10006700B09168008C3221E09207A105B10511
:100B200088F08C529140A109B1098093650090939F
:100B30006600A0936700B0936800892B8A2B8B2BEB
:100B400001F508C0109265001092660010926700CF
:100B50001092680080911201909113017CDA30D1DB
:100B60004B015C0183DAB401990C880B990B6FDEA1
:100B7000EB01C0926500D0926600E0926700F092AF
:100B80006800BE0180E03CDFB8CFCF93DF93FC016B
:100B9000892B01F1848195810097F9F04081518181
:100BA000628173814115510561057105C9F0EF013D
:100BB000440F551F440F551F60E070E042D11E8264
:100BC0001F82188619861A861B861C861D8680E061
:100BD00090E008C08FEF9FEF05C08EEF9FEF02C03F
:100BE0008EEF9FEFDF91CF9108958F929F92AF92FA
:100BF000BF92CF92DF92EF92FF92CF93DF93EC01FF
:100C0000892B09F45AC0EE81FF81EE0FFF1FEE0F12
:100C1000FF1F8C819D81E80FF91F40835183628300
:100C200073831A861B861C861D86C880D980EA803D
:100C3000FB80C114D104E104F10409F444C0EC8147
:100C4000FD819601220F331F220F331F2E0F3F1FEE
:100C500041915191619171918A859B85AC85BD854A
:100C60004A015B01880E991EAA1EBB1EC501B40174
:100C70008A869B86AC86BD862E173F0749F7A7015B
:100C80009601BDD02A873B874C875D878E819F81E7
:100C9000A885B9850196A11DB11D8E839F83A88764
:100CA000B9878C159D05AE05BF0550F01E821F82C9
:100CB0001886198680E090E00BC08FEF9FEF08C088
:100CC00080E090E005C01A861B861C861D86EECF4C
:100CD000DF91CF91FF90EF90DF90CF90BF90AF90DA
:100CE0009F908F900895009781F06115710581F0B4
:100CF000FC0182859385A485B585FB018083918362
:100D0000A283B38380E090E008958FEF9FEF089572
:100D10008FEF9FEF08956FEF7FEF84E090E0D4D0E6
:100D200010926A00109269000895CF93DF9384E0D7
:100D300090E0C1D0EC01BC01990F880B990B85DBC9
:100D40008CED90E07CDB83E890E079DB219679F410
:100D50008EE990E074DB60E070E0CB0176DB8CED37
:100D600090E06DDB10926A00109269000EC06FEF88
:100D70007FEFCB016ADB8CED90E061DB8FEF9FEFC3
:100D800090936A0080936900C6DFDF91CF91089548
:100D9000CF92DF92EF92FF926B017C0156DB8CEDDC
:100DA00090E04DDBB701A6018BE690E01EDFFF90DF
:100DB000EF90DF90CF9008958BE690E0E6DE089507
:100DC000CF93DF9300D000D0CDB7DEB719821A825F
:100DD0001B821C8268EC76E085E04AD9BE016F5F19
:100DE0007F4F8BE690E07FDF69817A818B819C81E8
:100DF0000F900F900F900F90DF91CF910895A1E287
:100E00001A2EAA1BBB1BFD010DC0AA1FBB1FEE1F84
:100E1000FF1FA217B307E407F50720F0A21BB30BCF
:100E2000E40BF50B661F771F881F991F1A9469F74B
:100E300060957095809590959B01AC01BD01CF01A7
:100E40000895DC0101C06D9341505040E0F70895D2
:100E5000BB274A3031F4992322F4BDE29095819565
:100E60009F4F01C0BB27FB015527AA27880F991F59
:100E7000AA1FA41710F0A41B83955051B9F7A05DC9
:100E8000AA3308F0A95DA193009779F7B111B19346
:100E90001192CB0100C0DC01FC01672F7191772317
:100EA000E1F7329704C07C916D9370836291AE1725
:100EB000BF07C8F30895A8E1B0E042E050E009C0E0
:100EC0000196272F15D013C024D0272F23C0DC0173
:100ED000CB01FC01E199FECF06C0FFBBEEBBE09A5F
:100EE00031960DB20D9241505040B8F70895262F1B
:100EF000E199FECF9FBB8EBBE09A01970DB202161F
:100F000039F01CBA2DBB0FB6F894E29AE19A0FBEE5
:100F10000895262FE199FECF1CBA9FBB8EBB2DBB37
:100F20000FB6F894E29AE19A0FBE01960895F894EC
:020F3000FFCFF1
:100F3200FFFFFFFF02201C0000FFFF050000001B57
:100F42000100000000000000000001020304050689
:100F5200072021436865636B696E6720666F7220A4
:100F6200696E76616C69642076616C756500466FA6
:100F7200756E6420666972737420696E76616C693D
:100F8200642076616C7565002D2D2D53616D706C3A
:100F920065206C6F672D2D2D004E756D6265722078
:0E0FA2006F6620656E74726965733A200000F8
:00000001FF
